:020000040000FA
:100000000212FF022003FFFFFFFFFF02200BFFFF92
:10001000FFFFFF020E61FFFFFFFFFF02201BFFFF3C
:10002000FFFFFF022023FFFFFFFFFF02202BFFFF48
:10003000FFFFFF022033FFFFFFFFFF020EA4FFFFC1
:10004000FFFFFF022043FFFFFFFFFF02204BFFFFE8
:10005000FFFFFF022053FFFFFFFFFF02205BFFFFB8
:10006000FFFFFF022063FFFFFFFFFF02206BFFFF88
:10007000FFFFFF022073FFFFFFFFFF02207BFFFF58
:10008000FFFFFF022083FFFFFFFFFF02208BFFFF28
:10009000FFFF70DFFFFF040000000002000000C847
:1000A0000300030369A5020269A501000000000026
:1000B00004003273000074F8121046900393E0605D
:1000C0001590030274FEF0900304744DF0A37405C0
:1000D000F07A011206857F0102116374F71210464F
:1000E00074FF12126B7E00801F851882851983E0D1
:1000F00064FE70069003877401F085188285198369
:10010000E0F8900384E068F07C017D00AA18AB1948
:10011000120E1C8B09EA450970030201F38518824F
:10012000851983E064EF70027E07E0C0E0900387EA
:10013000E0FA900385E0F8EA28F8E43400F9740264
:1001400028F582740339F583D0E0F0900387E060EE
:100150009814600E14602C14603C14605214606893
:100160008098900384E4F0851882851983E09003D9
:1001700086F0C394809003874004E40200F974027F
:100180000200F9851882851983E0900382F09003BC
:100190008774030200F9851882851983E090038330
:1001A000F0900386E0601990038774040200F990D0
:1001B0000385E004F0F8900386E06860030200FA2B
:1001C00090038774050200F9900385E4F09003879B
:1001D000F0900384E0F8851882851983E068600355
:1001E0000200FA900382E0644D60030200FA1203F9
:1001F000288002EEF974011212377F020211637433
:10020000F712104674FB12126BEAFEEBFF7508043E
:1002100075090078081212CF74021212E87A907BE6
:10022000007904120EC574021212371206771213E7
:1002300039E0687003A3E06970128518828519831C
:10024000E0F47003A3E0F4600302030874041212E4
:10025000E01206DD8A088B09A808A90974021213A6
:1002600039E8F0A3E9F07404121339E06008790169
:100270001200B6020321851882851983E068700395
:10028000A3E0697076851882851983E0F47003A372
:10029000E0F4701974021213397410F0A37420F092
:1002A0008518828519837410F0A37420F0750801F5
:1002B00075090078081212CF74021212E87A247BB2
:1002C00008120F49740212123775080478081212C6
:1002D000CF74021212E87A907B007904120EC57472
:1002E00002121237120677121339E0687003A3E086
:1002F000697004790280067904800279031200B6DD
:100300008E828F83741E80058E828F83E4F01206A6
:1003100077121339E0687003A3E0697004790180F3
:1003200002790074050201F774ED12104674F81298
:10033000126B900307E0FD900306E0FCFAEDF8E491
:10034000C8F9EA28FEE93408FF751001750B00753D
:100350000A068E088F0974027808121296C395084F
:10036000F8E49509F9740228F50E740339F50F8E37
:10037000088F09740978081212F0E508F511EE24C7
:1003800010F508E43FF509EEF50CEF5401F50D907A
:100390000383E014605914700302046414700302B0
:1003A00004DF14601024FE700302059A1470030227
:1003B000064A02065A750A03794E120C5B9003072F
:1003C00012066D7402F0A3744012066B74081206D4
:1003D0006BF0A3F07418C3940704F510AA10A90BCE
:1003E000120685A90A74081212377F0C0211637570
:1003F0000A04794E120C5BEE450D7005A911120F1F
:10040000AFC3EE9425EF9408503CC3E5089424E56F
:100410000994084031E50E2496F8E50F3420F98858
:10042000828983E0701BA3AA82AB83E070139003E0
:10043000887401F08882898374A5F08A828B838016
:1004400004900388E4F0750810750900780812120A
:10045000CF7C087D03EEFAEFFB120F4974021212F3
:10046000370203DC750A05E511C394794006750B64
:10047000010203DC75124075130078121212CF7C52
:10048000097D037402780C121296AA0CAB0DA91107
:10049000120EC57402121237900307E0A3F0900306
:1004A00006E0A3F0751043C3EE9425EF94084003D3
:1004B0000203DCC3E5089424E50994085003020311
:1004C000DC900388E070030203DCE50E2497F8E576
:1004D0000F3420F988828983E4F0A3F00203DC75ED
:1004E000080475090078081212CF74021212E87A13
:1004F000907B007904120EC5740212123774021236
:100500001339E0F8A3E0F9851882851983E0687053
:1005100003A3E069851882851983700BE0F47003EA
:10052000A3E0F470578009E0F47003A3E0F4700DC9
:100530008518828519837410F0A37420F012067751
:10054000121339E8F0A3E9F075080178081212CF08
:1005500074021212E87A247B08120F4974021212F4
:100560003775080478081212CF74021212E87A90D4
:100570007B007904120EC57402121237120677122C
:100580001339E0687003A3E0697006750A0102037D
:10059000DC750A02750B070203DC900391E060072B
:1005A000640260030203DCEDFF7A01790012068524
:1005B000E0600302063E8003120D1C120D26E97056
:1005C000F7740412133912065F7404121339780891
:1005D00012131D85080C85090D850A0E850B0F90D9
:1005E00005A2780C1212BC7404121339780C121381
:1005F0000EE5084509450A450B70CE8EC2E5C55487
:10060000E04FF5C5740412133912065F7404121317
:1006100039780812131D85080C85090D850A0E8589
:100620000B0F9005A2780C1212BC740412133978C7
:100630000C12130EE5084509450A450B70CE7A01E8
:10064000790012068579080203E5EC900393F070B7
:10065000030203DC750A090203DC79060203E5E400
:10066000F0A37426F0A3E4F0A3F022F0A3E4F0A337
:10067000F0A3F0A3F0A322851882851983E0F8A3E4
:10068000E0F974022274F8121046EAFE900305E0C5
:10069000D2E7F0E9A3F0EE900303F08E0874042A89
:1006A000FE7C028004E062080CECFA3395E0FB74F7
:1006B000022AF58274033BF583EEF8C3EA98EB94C3
:1006C00000A2D265D03340DDE508F074012A0C3376
:1006D00095E0FD7A027B03120E4C0200D674E912FB
:1006E00010467582007583FE1211FE8A168B1775EF
:1006F00014007515008A828B83E4F0900391E070FA
:1007000006D2AAD2AF80046402700579001200B646
:10071000750C00750D20750E00750F00900391E0AB
:10072000600464027015120D1C1200DBE9F87409F4
:1007300068600302080D79001200B675080075099B
:100740000278081212CF74021212E8850C08850D87
:1007500009AA08E5095407FB850E0A850F0B740BDF
:100760007808121252A908120EC574021212377EAE
:10077000007F009005AAC0828E10EFF5113395E03E
:10078000F512F513850C08850D09850E0A850F0BEA
:10079000780879101212A99005A678081212BC7573
:1007A0008305D08278081211DF501D8518828519C3
:1007B00083E5822EF582E5833FF583E0F9AA14AB49
:1007C0001512083C8A148B150EEE70010FC3EF94BE
:1007D0000240A09005AE780C1212BC9005B2780CC5
:1007E0001211DF400302071C7900AA14AB1512088E
:1007F0003C790012083C8B15900391E07004C2AF65
:10080000C2AAEA451570277AA57BA58021E8700366
:1008100002073B740668700302073B7407687003A5
:1008200002073B8516828517837401F080BA7582B2
:10083000007583021211FE7F10021163C008C00907
:100840007C088A088B09740F78081212F0E508F802
:10085000EA25E0FAEB33FBE9A2E7500474014AFA17
:10086000E8A2E0500874216AFA74106BFBE9C33304
:10087000F91CEC70CDD009D0082274F8121046781B
:10088000007900802274942EF582E43403F583E02D
:100890008A828B83F09004141209FA4005900414A4
:1008A000E4F008E8700109900414E0FEA3E06E6033
:1008B00007C3E89CE99D40CDE8FAE9FB7F010211FE
:1008C0006374F7121046900498E0F509A3E0F50868
:1008D000F8E509C398F895E0F9E508C39509E850EB
:1008E0000B120ADC701178007900801B247F500104
:1008F00009C39CE99D50EF7A007B008041E004F041
:10090000D2E908E8700109C3E89CE99D502C8A826D
:100910008B83E0C0E0900499E0FE74182EF582E429
:100920003404F583D0E0120ACC90049AE4F09004E9
:1009300099E0C3947F40C6E480C5E8FAE9FB7F02F2
:10094000021163C082C083C2E9900498E0F8A3E07A
:10095000686017741828F582E43404F583E0F5C163
:10096000900498120AF34002E4F0020D3A74F8126F
:1009700010467800790090051DE07055A3E0705195
:1009800075F900C28FC284A28340FCA28F4004A2EA
:100990008350F8AEF9C28FA2835004D2848032EE25
:1009A000C0E0E0FE1209EFD0E0F090051E120AF35D
:1009B00040D9E4F080D51209EFE08A828B83F09071
:1009C000051D1209FA400590051DE4F008E87001C4
:1009D0000990051DE0FEA3E06E6007C3E89CE99D59
:1009E00040D4E8497006E4F090051DF00208B874A0
:1009F0009D2EF582E43404F58322E004120AD0C36C
:100A000094802274F81210469005A0E0FEF890053C
:100A10009FE0FFEEC39FE0500DC398F895E0F912F8
:100A20000ADB70188012C398F895E0F9E8247F502B
:100A30000109C39CE99D4004EC4D70077A007B00DE
:100A4000020AC98A828B83E0F5F9A3AA82AB837874
:100A50000179008008E004F008E8700109C3E89C0F
:100A6000E99D50278A828B83E0C0E09005A0E0FEDC
:100A7000741F2EF582E43405F583D0E0120ACC9081
:100A800005A0E0C3947F40CDE480CCC28FA2834018
:100A9000FCC284A28F4004A28350F890059F120AE2
:100AA000E6E0F5F9C28F90059FE0FAA3E06A9005B1
:100AB0009F7005120AE68005120AF34002E4F0A2D4
:100AC0008350D0D284E8FAE9FB0208BC120AD02293
:100AD000F08A828B83A3AA82AB8322E824FF18E9E1
:100AE00034FFF9E84922E0FA741F2AF582E434055C
:100AF000F58322E004F0C394802274FB12126B7E13
:100B0000009005CA780812131D9005CA7401F0A35D
:100B1000F0A37469F0A374A5F09005B678081212DA
:100B20008170047E0180159005BA780812128160E8
:100B300008E59D541864107003022000120C81EE29
:100B4000A2E05003020BFEAA18AB191201FFE970D4
:100B500003020BFE851882851983E0C3943C500C78
:100B6000E0F8743CC398FA95E0FB80047A007B00BF
:100B7000120D3FE97003020BFE900391E0640170D7
:100B80000C75F800C2AB539AF7D2EA805E7907126F
:100B900000B68003120D1C120D26E970F7740112C5
:100BA0001339E4F0A37426F0A3E4F0A3F074011267
:100BB0001339780812131D85080C85090D850A0E56
:100BC000850B0F9005A2780C1212BC740112133918
:100BD000780C12130EE5084509450A450B70CE75D1
:100BE0008600C2AAC28B539AFBC2E990000174CD61
:100BF000F0022000C2AF75C9AB75C95B80FE7508F5
:100C000000750900750A00750B00900391E0701BD8
:100C1000D2AAD2AF79051200B6E07003120D1C12F1
:100C200000DBE9F8740968700980E9794E120C5B01
:100C300080ED74016870E2E07017120D1C9005BE23
:100C400078081212BC9005C278081211DF50EBC26E
:100C5000AAC2AF75C9AB75C95B80FEC082C083787C
:100C6000109005A1E0C399501575B60FE5B4A2E741
:100C700050FAE5BBC39940F118E870EDE9F0020DB8
:100C80003AC082C08353BEFBE59DA2E650FA0078CD
:100C9000F8790100120ADB70FA75C6807480659ECF
:100CA00070FA43BE049062707408F0794A120C5BCB
:100CB00090000174F5F07403F5D575D489A2A0E411
:100CC00033900391F0A2E05029D28453F3F753F309
:100CD000EF53FDF743FD10538FF753F7DF43FC202D
:100CE00043F10253F5DF75F82043F4F0D2FED2ABA6
:100CF000802853FF3F85FFFF53F1FE43F30C53F26F
:100D0000F375868075C48090049BE4F0A3F075C2EF
:100D1000D875C50B75C402438640801E8003120936
:100D200043A2E940F922C082C083900498E0F8A36E
:100D3000E0686004790180027900D083D082227457
:100D4000F112104674FF12126B7E00900391E06462
:100D500001706CC2849003927401F07508388E099A
:100D60008E0A8E0B7C017D00AA18AB19120E1C8B0B
:100D70000DEA450D6018851882851983E0641060BE
:100D80002DE064EF70088E088E098E0A8E0B8508A0
:100D90000C85090D850A0E850B0F9005A2780812A7
:100DA00012BCE50C450D450E450F70347E019003D5
:100DB00091E064017056D284900392E4F08051D2A5
:100DC000AAD2AF8A088B09E4F50AF50B9005C6781C
:100DD0000C12131D7808790C120FC679061200B692
:100DE000900391E06003020D64120D1C1200DBE918
:100DF000F8740968700779061200B6809174076864
:100E00006084E8608974066870A48082C2AFC2AA58
:100E1000EEF974011212377F08021163C082C08399
:100E2000900391E0700512087A801E900392E060B2
:100E300015A28F500BE5F98A828B83F07A0180022C
:100E40007A007B00800312096D020D3AC082C083D4
:100E5000900391E070051208C18003120A03020D8D
:100E60003AC0E074F21210AC900001E064CD70055D
:100E7000122013802AE064F57024E5C1C28BC0E023
:100E8000900415E0F8749428F582E43403F583D0D7
:100E9000E0F0900415120AF34005E4F08001007FB1
:100EA0000102110BC0E074F21210AC900001E0647A
:100EB000CD700512203B800BE064F57005120943EC
:100EC00080010080DA74F6121046890A740F550A00
:100ED000F508750900740B7808121296EA2400F8D8
:100EE000EB3480F9E82400E93509F985C709A2AF98
:100EF000E433F508C2AFE50AC4540FFAE5C754F865
:100F00004AF5C7740A121339E0FAA3E0FB801C8883
:100F1000828983E08C828D83F088828983A3A88272
:100F2000A9838C828D83A3AC82AD83EAFEEBFFEEB6
:100F300024FF1AEF34FFFBEE4F70D48509C7E50894
:100F4000A2E092AF7F0302116374F7121046ED9096
:100F50000389F0ECA3F0A37462F0A37473F0A3E030
:100F6000541FF07409121339E0F508A3E0F509E500
:100F700008333354FC90038EF0740678081212F094
:100F8000E50890038DF090038F7412F0A37442F083
:100F900075D1FE75D601EA906271F0EBA3F0906214
:100FA00070E0D2E1F0E0A2E740FB7F02021163C0F3
:100FB00082C083E9C333906272F0906270E0D2E045
:100FC000F0D083D08222080808EAC0E0EBC0E086B7
:100FD000F0E7A4FA180986F0E7A42AFA180986F0BF
:100FE000E7A42AFA180986F0E7A42AFA1986F0E796
:100FF000A4FBE5F02AFA190886F0E7A42BFBE5F03C
:101000003AFA190886F0E7A42BFBE5F03AFA18182B
:101010000986F0E7A4C5F02BFBE43AFA1908E7C506
:10102000F0C6A426F6E5F03BFBE43AFA1886F0E7B2
:10103000A4F6E5F00826F6E43B08F6E43A08F6D014
:10104000E0FBD0E0FA222518C582C0E0E51934FFA4
:10105000C583C0E0E518C3958224F910AF088583E5
:10106000198582188008858319858218D2AFCEF041
:10107000A3E520F0A37808E608F0A3DEFAEFF0A3DA
:10108000E58124FBF8E608F0A3E608F0A30808E6EB
:1010900008F0A3E608F0A315811581D0E0FED0E0AA
:1010A000F815811581E8C0E0EEC0E022C0D0251817
:1010B000C582C0E0E51934FFC583C0E0E518C395DB
:1010C0008224F310AF0885831985821880088583F0
:1010D00019858218D2AFC8F0A3E9F0A3EAF0A3EB18
:1010E000F0A37908E709F0A3D8FAECF0A3EDF0A398
:1010F000EEF0A3EFF0A3D0E0F0A3D0E0F0A3D0E0B7
:10110000F0A3E520F0A3E5F0F0A32285198385186C
:1011100082E0C0E0A3E0F9A3E0FAA3E0FBA3780833
:10112000E0F608A3DFFAE0FCA3E0FDA3E0FEA3E005
:10113000FFA3E0C0E0A3E0C0E0A3E0F5D0A3E0F5AA
:1011400020A3E0A3F5F010AF0885831985821880ED
:1011500008858319858218D2AFD082D083D0E0F879
:10116000D0E032851983851882E0A3FEE0A3F52044
:101170007808E0A3F608DFFAE0A3FFE0A3C0E0E010
:10118000A3C0E0E0A3C0E0E0A3C0E010AF08858208
:10119000188583198008858218858319D2AFD0837A
:1011A000D08222E490030278A179038002F0A3D8D0
:1011B000FCD9FA7AA27B0590008E782979018015F6
:1011C000E493A3AD82AE838A828B83F0A3AA82AB21
:1011D000838D828E83D8E9D9E7120AFA121343C0AD
:1011E00008C3E096F50808A3E096420808A3E09635
:1011F000420808A3E09645087001D3D00822C582B2
:101200002518C582C583351910AF07F519858218D1
:101210008007F519858218D2AFC583222518F5827B
:1012200010AF08F518400C15198008F51840021584
:1012300019D2AF8519832200C0D0251810AF08F548
:1012400018500C05198008F51850020519D2AFD0B6
:10125000D0226016080808C6C313C618C613C618DD
:10126000C613C618C613C6D5E0EA22251810AF0863
:10127000F518400C15198008F51840021519D2AF61
:1012800022E066701008A3E066700A08A3E06670AA
:101290000408A3E06622700422600D18C6C333C69A
:1012A00008C633C6D5E0F41822E627F60809E63763
:1012B000F60809E637F60809E637F622E026F608CA
:1012C000A3E036F608A3E036F608A3E036F622746B
:1012D000028000C0E0F40412121CD0E012132C2291
:1012E0002518FAE43519FB222518FCE43519FD22EE
:1012F000600C08C6C313C618C613C6D5E0F4227521
:10130000D00075813F7518027519030211A3E6F02C
:1013100008A3E6F008A3E6F008A3E6F022E0F6084A
:10132000A3E0F608A3E0F608A3E0F622CAC0E0E6D0
:10133000F0A308DAFAD0E0FA222518F582E435198C
:10134000F5832200000080FBFFFFFFFFFFFFFFFF90
:10135000FFFFFFFFFFFFFFFFFFFFFFFFFFFFFFFF9D
:10136000FFFFFFFFFFFFFFFFFFFFFFFFFFFFFFFF8D
:10137000FFFFFFFFFFFFFFFFFFFFFFFFFFFFFFFF7D
:10138000FFFFFFFFFFFFFFFFFFFFFFFFFFFFFFFF6D
:0A1FF600CA05094338860000000008
:020000040003F7
:01FFF000F020
:020000040000FA
:10200000022C010221FAFFFFFFFFFFFFFFFFFFFF8E
:10201000FFFFFFFFFFFFFFFFFFFFFFFFFFFFFFFFD0
:10202000FFFFFFFFFFFFFFFFFFFFFF0229F1FFFFA1
:10203000FFFFFFFFFFFFFFFFFFFFFFFFFFFFFFFFB0
:10204000FFFFFF022745FFFFFFFFFFFFFFFFFFFF2F
:10205000FFFFFF02213AFFFFFFFFFFFFFFFFFFFF30
:10206000FFFFFFFFFFFFFFFFFFFFFF0228BAFFFF99
:10207000FFFFFFFFFFFFFFFFFFFFFFFFFFFFFFFF70
:10208000FFFFFF02218EFFFFFFFFFFFFFFFFFFFFAC
:102090001020102001965118000200002C30000082
:1020A0000000C62FAA30FC2F74300000F02F000073
:1020B0000000000000000000000000000000000020
:1020C00000000000000006FFFFFF01010400041AE9
:1020D000000000E8030000FFFF7F1A03E803000090
:1020E00064006400B801A0BB0D00A0BB0D0002029B
:1020F000000800000502070401081E020564020131
:10210000780A010501080803B80B02803E0102FEAF
:10211000FFE8030A050001FFFF0A1401E0010105C1
:10212000030101FF0F10FEFF414C00000000B34A05
:1021300000000000FF000000FF00C0E074F2122564
:102140000DA2AFE433F508D2AFAFA7AEA1EE5F5456
:10215000106006122D5075A1EFEE5F540860081252
:102160002D5675A1F78023EEA2E092F0EFA2E08257
:10217000F05017906198E0F8900725E0C398A2D23C
:1021800065D0335002E8F075A1FEE5088063C0E039
:1021900074F212250DA2AFE433FED2AF9061A4E039
:1021A000F8759B00E59158540860087591F7122D59
:1021B0009E8023E59158541060087591EF122DA46C
:1021C0008014E591A2E092F0E8A2E082F05007E0EE
:1021D000C2E0F0122EFA9061A3E0F8E5E958540449
:1021E000600E122ED075E9FB906193E0A2E640F2FA
:1021F000EEA2E092AF7F0102256CC0E074F21225DE
:102200000DA2AFE433FED2AF9061A5E0F8E5BF5870
:102210005404600675BFFB122F1280D4C3E498F8F3
:10222000E499F912225D8026C3E49AFAE49BFBE963
:1022300020E7E912225DE498F8E499F922C3E498D2
:10224000F8E499F912225DE498F8E499F9C3E49A64
:10225000FAE49BFB22EB20E7CFE920E7E0B900108E
:10226000BB0008E88AF084F8AAF022E4FBC8FA224E
:10227000EB70227B10C833C8C933C9335007C39AE7
:10228000C3DBF280069A50012ADBEAC833F4C8C9DE
:1022900033F4C9FA2275F008E4C833C8C933C93326
:1022A000C99AC99B5004C92AC93BD5F0ECFBC83375
:1022B000F4C8E4C9FA2274F51224A774FA122A8425
:1022C00075080475090078081229A87404122A4EAA
:1022D0007AF87B0779031239E074021229D69080CC
:1022E000BB7808122C117402122C927808122AAFB3
:1022F000704875080275090078081229A87402123E
:102300002A4E7AF67B0779031239E074021229D635
:10231000851882851983E0F47003A3E0F4601B85BF
:102320001882851983E0F8A3E08882F5837402F0AF
:10233000A3F0A37469F0A374A5F0C2AF75D69F0291
:10234000000074061229D67F04022788080808EACC
:10235000C0E0EBC0E086F0E7A4FA180986F0E7A435
:102360002AFA180986F0E7A42AFA180986F0E7A4E1
:102370002AFA1986F0E7A4FBE5F02AFA190886F094
:10238000E7A42BFBE5F03AFA190886F0E7A42BFB4B
:10239000E5F03AFA18180986F0E7A4C5F02BFBE43B
:1023A0003AFA1908E7C5F0C6A426F6E5F03BFBE4C7
:1023B0003AFA1886F0E7A4F6E5F00826F6E43B08BA
:1023C000F6E43A08F6D0E0FBD0E0FA22E4CFC0E031
:1023D000E4CEC0E0E4CDC0E0E4CCC0E075F020E69F
:1023E00026F608E633F608E633F608E633F618185C
:1023F00018EC33FCED33FDEE33FEEF33FFC3EC9707
:1024000009ED9709EE9709EF97191919400FFFEC9D
:1024100097FC09ED97FD09EE97FE191906D5F0BF57
:10242000ECF709EDF709EEF709EFF7191919D0E004
:10243000FCD0E0FDD0E0FED0E0FF222518C582C030
:10244000E0E51934FFC583C0E0E518C3958224F8A0
:1024500010AF0885831985821880088583198582C5
:1024600018D2AFCEF0A3E520F0A37808E608F0A3D9
:10247000DEFAEFF0A3E58124FAF8E608F0A3E60817
:10248000F0A3E608F0A30808E608F0A3E608F0A326
:1024900015811581D0E0FED0E0F8158115811581F8
:1024A000E8C0E0EEC0E0222518C582C0E0E519349E
:1024B000FFC583C0E0E518C3958224F910AF0885F5
:1024C00083198582188008858319858218D2AFCE3A
:1024D000F0A3E520F0A37808E608F0A3DEFAEFF019
:1024E000A3E58124FBF8E608F0A3E608F0A30808BA
:1024F000E608F0A3E608F0A315811581D0E0FED030
:10250000E0F815811581E8C0E0EEC0E022C0D025DA
:1025100018C582C0E0E51934FFC583C0E0E518C3E3
:10252000958224F310AF0885831985821880088569
:102530008319858218D2AFC8F0A3E9F0A3EAF0A30B
:10254000EBF0A37908E709F0A3D8FAECF0A3EDF0DB
:10255000A3EEF0A3EFF0A3D0E0F0A3D0E0F0A3D07F
:10256000E0F0A3E520F0A3E5F0F0A3228519838530
:102570001882E0C0E0A3E0F9A3E0FAA3E0FBA378AF
:1025800008E0F608A3DFFAE0FCA3E0FDA3E0FEA369
:10259000E0FFA3E0C0E0A3E0C0E0A3E0F5D0A3E04B
:1025A000F520A3E0A3F5F010AF0885831985821804
:1025B0008008858319858218D2AFD082D083D0E07D
:1025C000F8D0E032122C87B90003022603E490040D
:1025D000D1788A791A8002F0A3D8FCD9FA7A5A7B8A
:1025E0001E90209478A779018015E493A3AD82AE64
:1025F000838A828B83F0A3AA82AB838D828E83D859
:10260000E9D9E77582E37583FD7405122982758225
:10261000B07583487400122982E473FF75F0108E40
:102620001A8F1B85821F85831E851882851983E07A
:10263000CEA3E0CF851F82851E83EBC9EAC8EDCB10
:10264000ECCAC3E833C8E933C9EA33CAEB33CBC3B6
:10265000EA9EF51DEB9FF51CB35004AB1CAA1DECC4
:1026600033CCED33CDD5F0DAAE1AAF1B22D083D008
:1026700082ECC0E0EDC0E0E493A3FCE493A3FDEDA5
:102680004C600D1227C8EC24FFFCED34FFFD80EFF9
:10269000E493A3FCE493A3FDED4C600D122865ECDC
:1026A00024FFFCED34FFFD80EFD0E0FDD0E0FCE442
:1026B00093A3C0E0E493C0E022851983851882E0EB
:1026C000A3FEE0A3F5207808E0A3F608DFFAE0A374
:1026D000FFE0A3C0E0E0A3C0E0E0A3C0E0E0A3C04F
:1026E000E0E0A3C0E010AF08858218858319800858
:1026F000858218858319D2AFD083D082022988D0F1
:1027000083D082E9C0E0E493A3C386F0C5F095F0DE
:10271000F908E493A386F0C5F095F0700BE493A359
:10272000C3994005E9048002A3E475F002A4258260
:10273000F582E5F03583F583D0E0F9E493A3C0E0BA
:10274000E493C0E022C0E074F212250DA2AFE4339E
:10275000FED2AFC2C0901B29E0700BE5D1A2E450BD
:102760001D122CBA8018E5D1A2E3500675D1F712DC
:1027700047CCE5D1A2E4500675D1EF1247C0EEA2D6
:10278000E092AF7F0102256C851983851882E0A352
:10279000FEE0A3F5207808E0A3F608DFFAE0A3FF47
:1027A000E0A3C0E0E0A3C0E0E0A3C0E0E0A3C0E09D
:1027B00010AF088582188583198008858218858363
:1027C00019D2AFD083D08222C0E0C3E493960874BC
:1027D00001939618400FE49366700808740193669D
:1027E0001870007019A3A3C3E4939608740193961C
:1027F00018A3A3400DD0E0D0E0D0E00226A9A3A307
:10280000A3A3A3A3D0E0227404800474028000CCAC
:10281000C0E0EDC0E0E518C39CCCAD1950011D101F
:10282000AF068C188D1980068C188D19D2AF12291D
:1028300004D0E0FDD0E0FC2274028000CCC0E0EDCA
:10284000C0E0E518C39CCCAD1950011D10AF068C3B
:10285000188D1980068C188D19D2AF1228E2D0E09D
:10286000FDD0E0FC22C0E0C0F088F0E49366700880
:102870000874019366187000A8F0A3A3700BD0F041
:10288000D0E0D0E0D0E00226A9A3A3D0F0D0E0228F
:10289000D083D082CCC0E0E493A3600612296314F5
:1028A00070FAE493A36006122A6E1470FAD0E0FC6A
:1028B000E493A3C0E0E493C0E022C0E074F21225E8
:1028C0000D758900C2C5901B29E0700E7A007B103F
:1028D0009007BDE0F91231D68003123A3A7F010227
:1028E000256CCAC0E0E493A3C582CCC582C583CD64
:1028F000C583F0A3C582CCC582C583CDC583DAE587
:10290000D0E0CA22CAC0E0E0A3C582CCC582C5839C
:10291000CDC583F0A3C582CCC582C583CDC583DA7E
:10292000E6D0E0CA227009080808226016181818B4
:10293000C6C333C608C633C608C633C608C633C6C0
:10294000D5E0EA22C008C3E096F50808A3E0964265
:102950000808A3E096420808A3E09645087001D352
:10296000D00822C0E0E493A3D39C5010E493A3C307
:102970009C400AD0E0D0E0D0E00228ADA3A3A3D0D1
:10298000E022C09FF59FE473D09F22D083D082C005
:102990009FE493C0E0740193C0E0740293F59F221A
:1029A0007404800A74038006740280027401C0E01B
:1029B000F4041229BBD0E0122C3E222518F5821017
:1029C000AF08F518400C15198008F51840021519C4
:1029D000D2AF8519832200C0D0251810AF08F51892
:1029E000500C05198008F51850020519D2AFD0D047
:1029F00022C0E0C0D0E8C0E0A8A8D2AFC2C7E8A219
:102A0000E792AFD0E0F8D0D0D0E032BB0102E722AD
:102A1000C082C08389828A83BB0003E08002E49382
:102A2000D083D082226016080808C6C313C618C611
:102A300013C618C613C618C613C6D5E0EA22251851
:102A4000F8E43519F9222518FAE43519FB2225187E
:102A5000FCE43519FD22C3E0C696F608A3E0C6964D
:102A6000F608A3E0C696F608A3E0C696F622C0E0F4
:102A7000E493A36C7009D0E0D0E0D0E00228ADA3CD
:102A8000A3D0E022251810AF08F518400C151980C6
:102A900008F51840021519D2AF22E7667010080930
:102AA000E766700A0809E76670040809E76622E02D
:102AB00066701008A3E066700A08A3E06670040858
:102AC000A3E06622C3E09608A3E09608A3E0960878
:102AD000A3E096A2D265D03322C3E096F008A3E02B
:102AE00096F008A3E096F008A3E096F022C3E697DC
:102AF000F60809E697F60809E697F60809E697F654
:102B000022C3E4939608740193960874029396087E
:102B10007403939622E493F608740193F608740202
:102B200093F608740393F622E647F60809E647F69B
:102B30000809E647F60809E647F622E026F008A36A
:102B4000E036F008A3E036F008A3E036F022E627EE
:102B5000F60809E637F60809E637F60809E637F613
:102B600022E657F60809E657F60809E657F6080977
:102B7000E657F622E056F608A3E056F608A3E0561C
:102B8000F608A3E056F622E026F608A3E036F6089B
:102B9000A3E036F608A3E036F622E056F008A3E0FC
:102BA00056F008A3E056F008A3E056F02270042285
:102BB000600D18C6C333C608C633C6D5E0F4182264
:102BC000E4C396F608E496F608E496F608E496F66A
:102BD00022C6F4C608C6F4C608C6F4C608C6F4C6BB
:102BE00022C3E7960809E7960809E7960809E796D9
:102BF00022C3E09608A3E09608A3E09608A3E09617
:102C00002275D00075813F7518D175190400022511
:102C1000C4E0F608A3E0F608A3E0F608A3E0F62275
:102C2000600C08C6C313C618C613C6D5E0F422E666
:102C3000F008A3E6F008A3E6F008A3E6F022CAC075
:102C4000E0E6F0A308DAFAD0E0FA22ECF0A3EDF027
:102C5000A3EEF0A3EFF022E0FCA3E0FDA3E0FEA3CF
:102C6000E0FF22E0FAA3E0FBA3E0FCA3E0FD22E00A
:102C7000F8A3E0F9A3E0FAA3E0FB22E8F0A3E9F06F
:102C8000A3EAF0A3EBF022E5C754F84401F5C779B5
:102C900001222518F582E43519F5832212298B0CBF
:102CA000FA0312298BD4FA0312298B49FB03122948
:102CB0008B4CFC0312298BEDFD0312298B52FE0372
:102CC00012298B9DFE0312298BAEFE0312298BBDA8
:102CD000FE0312298BD3FE0312298BE6FE03122971
:102CE0008BF1FE0312298B02FF0312298B1FEA05C9
:102CF00012298B4BEA0512298BCDEC0512298B2466
:102D0000ED0512298B64ED0512298B78ED0512294A
:102D10008B91ED0512298B82EE0512298B33EF057D
:102D200012298B47EF0512298BABA70612298BCFEF
:102D3000A70612298BE8A70612298B1AA8061229C2
:102D40008B4AA80612298B77A80612298BD9A806C8
:102D500012298BE8A80612298BF2A80612298BFFEC
:102D6000A80612298B419A0612298B619A0612290C
:102D70008BA09A0612298BBB9A0612298BDA9A0627
:102D800012298B409B0612298B499B0612298BA680
:102D90009B0612298BCA9B0612298B8B9C06122933
:102DA0008B989C0612298BA99C0612298B8CB10644
:102DB00012298BA4B10612298BD0B10612298B429D
:102DC000800612298B96810612298BA4810612296E
:102DD0008BB7810612298BCC810612298BE18106E3
:102DE00012298BF4810612298B68820612298BCD59
:102DF000820612298B6F830612298B3384061229CF
:102E00008B43840612298B52840612298B81B006CB
:102E100012298BA5B00612298BCDB00612298BF58D
:102E2000B00612298B5B9F0612298B829F061229FE
:102E30008BA19F0612298B09A00612298B2F9706BA
:102E400012298B48970612298B54970612298B68F2
:102E5000970612298B86970612298B9097061229BE
:102E60008B9A970612298BAD970612298B3E9806EE
:102E700012298BAD980612298BE1980612298B2F07
:102E8000990612298B7C990612298B97990612298B
:102E90008BA1990612298BC7990612298B2C9A06A9
:102EA00012298B1EFF0412298B40FF0412298BE587
:102EB0007F0012298B52D20512298B7CD205122950
:102EC0008B99D20512298BACD20512298BC2D2055F
:102ED00012298B20D30512298B53D30512298B4835
:102EE000D70512298BA8D80512298BDBD805122902
:102EF0008B25D90512298B91DA0512298BB9DA05B0
:102F000012298BCEDA0512298BDEDA0512298B22E3
:102F1000DB0512298B7DDB0512298B8DDB05122940
:102F20008B64AA0612298B7EAA0612298BA6AA06F2
:102F300012298BBFAA0612298BE3AA0612298B013C
:102F4000AB0612298B18AB0612298B46AB06122949
:102F50008B61AB0612298BD3B10612298B399006EF
:102F600012298B49900612298B4E910612298B80CB
:102F7000910612298BA6910612298BC99106122956
:102F80008BE0910612298B1A920612298B839206E6
:102F900012298BC5920612298B04930612298B35B0
:102FA000930612298B6C930612298BAC8806122982
:102FB0008B11890612298BB7890612298BEE890697
:102FC00012298BADF10412298B44F20412298B7162
:102FD000F40412298B5CF70412298BEAF8041229F5
:102FE0008B56F90412298BA5FC0412298BF0FD04E1
:102FF00012298B94AB0612298BDFAB0612298B5B4F
:10300000EF0512298B01F20512298BA6F205122970
:103010008BD2F20512298B00F30512298B35F305AB
:1030200012298B5DF30512298BBDF30512298BED57
:10303000AD0512298B6CB20512298B54B4051229E7
:103040008B7DB50512298B5DB60512298B0BB80552
:1030500012298BAEB90512298B7ABA0512298BCEAB
:10306000BA0512298B0DA40612298B18A406122961
:103070008B39A40612298BA4930512298BB99805C4
:1030800012298B279A0512298BE39B0512298BE0C5
:103090009C0512298B109E0512298B289F05122949
:1030A0008B08A00512298B25BA0412298B5DBA045E
:1030B00012298B61C40412298B42C50412298B8EFC
:1030C000C60412298BD7C70412298B8DC804122974
:1030D0008B61C90412298B48CA0412298B30CB0496
:1030E00012298BD2CB0412298BFCCB0412298BAC76
:1030F000CD0412298B1CCE0412298B35CE04122943
:103100008B8CCF0412298B3DD00412298BBFD004A5
:1031100012298B6BD10412298BDBD10412298B77F6
:10312000D20412298BF3D20412298B11D304122951
:103130008B13D40412298BC9D40412298B6FD504A4
:1031400012298B3EA60612298B68A60612298B7BB4
:10315000A70612298B7EA70612298BD8AF06122943
:103160008B1EB00612298B60B00612298B70B00638
:1031700012298BA0E30512298BDEE30512298B4768
:10318000E40512298B64E40512298B7DE4051229DC
:103190008B2FE50512298B38E50512298B7DE50576
:1031A00012298BB3E50512298BCAE50512298B3C40
:1031B000E60512298BC9E60512298BFFE6051229BF
:1031C0008B56E70512298BBAE70512298BDDE70537
:1031D00012298B41E80512298B9DE80512298BD80D
:1031E000E80512298B0DE90512298B1FE905122923
:1031F0008B31E90512298B69E90512298BB5E9059F
:1032000012298BF3E90512298B70F40512298BB072
:10321000F50512298BD3F50512298BE4F505122942
:103220008BD9F70512298BF9F70512298BCDA10649
:1032300012298B03A20612298B4BA20612298BA7F7
:10324000A30612298B00800512298B3181051229D2
:103250008B6B810512298B2A830512298B548305D8
:1032600012298BE1850512298B21860512298BB83D
:10327000870512298B4B880512298BA388051229F3
:103280008B46890512298B7E890512298BC08905F9
:1032900012298B2F8B0512298B818C0512298BA467
:1032A0008E0512298BD28E0512298BF98E051229D3
:1032B0008B028F0512298B528F0512298BE48F0503
:1032C00012298BD4920512298B57930512298B4210
:1032D000B20612298B58B20612298BEAFB02122978
:1032E0008B00FC0212298BA5FC0212298BE4FC0244
:1032F00012298B01FD0212298B32FD0212298B7FCC
:10330000FD0212298BB2FD0212298BEDFD0212295A
:103310008BD9FF0212298BC8AD0612298B1DAE0670
:1033200012298B68AE0612298BB5AC0612298B27A1
:10333000AD0612298B65AD0612298BA6AD061229A2
:103340008BBDDB0512298BC3DB0512298B03DC0542
:1033500012298BF5DD0512298B25DE0512298B94A8
:10336000DE0512298B62DF0512298BA3DF051229E6
:103370008BD1DF0512298B5BE00512298B72E005EA
:1033800012298B7FE00512298B89E00512298B25F4
:10339000E20512298B1AE30512298B63E305122932
:1033A0008B77F70112298B8DF70112298B20F801F9
:1033B00012298B4CF90112298B41FA0112298BDE5B
:1033C000FA0112298B1EFB0112298B9CFB01122989
:1033D0008BF9FB0112298B09FC0112298B30FC01AE
:1033E00012298B83FC0112298BF4FD0112298BF920
:1033F000FD0112298B19FE0112298BFFDA02122915
:103400008B57DB0212298BFEDB0212298B73DD0244
:1034100012298B4DDE0212298B0ADF0212298B2121
:10342000DF0212298B70DF0212298BD4DF021229EE
:103430008B24E00212298B37E00212298B98E002DC
:1034400012298BF1E00212298B85E30212298B8964
:10345000E40212298BC4E40212298B18E502122916
:103460008BB5E70212298BFBE70212298B6EE8026B
:1034700012298BB8E80212298B8CE90212298BCF12
:10348000E90212298BE9E90212298B30EA0212299A
:103490008B46EA0212298BEBEA0212298BCFEB0250
:1034A00012298BDAEB0212298B28EC0212298B7D70
:1034B000EC0212298BC4EC0212298B28EE0212298D
:1034C0008B43EE0212298BC8F00212298BF6F00210
:1034D00012298BF5F10212298B19F20212298B881D
:1034E000F20212298B4BF30212298B86F302122966
:1034F0008BECF30212298B01F50212298B49F5029C
:1035000012298B5CF50212298B5FF50212298B6858
:10351000F50212298B7AF50212298B03F602122981
:103520008B2CF60212298B3FF60212298B6BF602C6
:1035300012298B92F60212298BB6F60212298B2FD2
:10354000F70212298BA1F70212298BD8F702122950
:103550008BE2F70212298B11F80212298B27F8024D
:1035600012298B42F80212298B70F80212298B90D3
:10357000F80212298BD9F80212298B14F9021229A8
:103580008B1BFA0212298B79FB0212298B8FFB020B
:1035900012298BA6FB0212298BB8FB0212298B156C
:1035A000FF0312298B26FF0312298BAFFF03122979
:1035B0008BFCFF0112298BDA780012298B29790004
:1035C00012298BC97A0012298B9D7C0012298BDF6E
:1035D0007C0012298BAA7D0012298BB27E00122951
:1035E0008BD47E0012298B307F0012298BB17F0093
:1035F00012298B944E0012298BB64E0012298B0E85
:10360000500012298B57500012298BCD50001229DF
:103610008B4B510012298BB0510012298BF25100B3
:1036200012298B61520012298B0C530012298B84B2
:10363000530012298BC9530012298BD85700122925
:103640008BDF590012298B125A0012298B645A0001
:1036500012298B675D0012298BE35D0012298B9183
:103660005F0012298BC3600012298BDB61001229D5
:103670008B5D620012298B3D630012298BA86300C9
:1036800012298BBC630012298B9E640012298BCEF9
:10369000650012298BE9670012298BE26900122963
:1036A0008BC56A0012298B5B6D0012298BFC6D00A3
:1036B00012298BFC6E0012298B5E720012298B6E10
:1036C000720012298BB4730012298B5174001229D5
:1036D0008B7B750012298B0C760012298B397700B1
:1036E00012298B7E770012298B12780012298B16F3
:1036F000D60412298BB6D60412298B20D70412299E
:103700008B39D70412298BC8D70412298B0CD80403
:1037100012298B2BD90412298B67D90412298BDA31
:10372000D90412298B25DA0412298B84DA04122990
:103730008B2EDB0412298B17DE0412298B34DF0455
:1037400012298BB1DF0412298B72E10412298B122A
:10375000E20412298BB1E20412298B14E30412292A
:103760008B89E30412298B98E40412298B79E504F0
:1037700012298BAFE50412298BE2E50412298B96FE
:10378000E60412298BC2E60412298B3DE7041229B4
:103790008BC0E80412298B3BEA0412298B90EB04BE
:1037A00012298B03ED0412298B0FEE0412298BB61C
:1037B000EE0412298B24EF0412298B3CF004122909
:1037C0008BACDA0312298B17DB0312298B5FDB0327
:1037D00012298BA3DB0312298B0DDC0312298B56D4
:1037E000DC0312298B91DC0312298B2BDD031229B8
:1037F0008B85DD0312298BDFDE0312298B68DF0343
:1038000012298B92DF0312298B97E00312298BA6D2
:10381000E10312298BD8E10312298BC8E203122994
:103820008BD9E20312298BF1E20312298BF1E30316
:1038300012298B0EE40312298BD3E40312298BFD8A
:10384000E40312298B14E50312298B3AE5031229AC
:103850008B71E50312298B91E50312298BB8E503DF
:1038600012298BD0E50312298BAAE60312298B02B9
:10387000E70312298B78E80312298B07E903122941
:103880008B2BE90312298B42E90312298B0DEA03E2
:1038900012298BB0EA0312298BD6EA0312298B0670
:1038A000EC0312298B25EC0312298BA6EC031229B9
:1038B0008B13ED0312298B57ED0312298BE5ED03D2
:1038C00012298B50EE0312298B02EF0312298BF27F
:1038D000F00312298BCAF10312298B1CF20312295F
:1038E0008B16F30312298B23F40312298B34F5036F
:1038F00012298B42F50312298B12F60312298BB27F
:10390000F60312298BF6F60312298B0BF703122903
:103910008B0BF80312298BAEF80312298B06F903DF
:1039200012298BC4930612298BFD940612298BC38E
:10393000950612298B27960612298B9B960612292B
:103940008B8B840612298BA9840612298BED8406A1
:1039500012298B13850612298B39850612298B5162
:10396000850612298B69850612298B818506122905
:103970008BEC850612298B2E860612298B43860630
:1039800012298B4A870612298B65870612298B6EAE
:10399000870612298B77870612298B8087061229C2
:1039A0008B8A870612298BAB870612298B288806FB
:1039B00012298B3FF90512298B5BFD0512298B77A4
:1039C000FD0512298B7CFD0512298B61FE0512294C
:1039D0008B958C0612298BAB8C0612298B318E06A7
:1039E00012298BD6AE0612298BE68E0612298BD9A8
:1039F0008F0612298B08900612298B1A900612291D
:103A00008B09A90612298BD79C0612298B339D0698
:103A100012298B739D0612298BDC9D0612298B00BF
:103A20009E0612298B159E0612298B359E06122999
:103A30008B559E0612298B659E0612298B7C9E064D
:103A400012298B9FF90312298B389F0612298BCEDE
:103A5000FF0412298B00800212298B578002122941
:103A60008BC3800212298B4F810212298B0582029F
:103A700012298B4D820212298B66820212298B89B0
:103A8000820212298BAB820212298BE9820212294F
:103A90008B38830212298B63830212298BC1830224
:103AA00012298B68840212298B10850212298B8CB3
:103AB000850212298B59860212298BA086021229AF
:103AC0008BEC860212298B74870212298BAD870238
:103AD00012298B03880212298B1F880212298B4E10
:103AE000880212298B5A8A0212298B888B0212298A
:103AF0008BB48B0212298BE88B0212298B098C0262
:103B000012298B188C0212298B238C0212298BD23A
:103B10008C0212298B428D0212298BCD8D02122923
:103B20008BD58D0212298B428E0212298B7E8E023A
:103B300012298B448F0212298B17900212298B6C49
:103B4000900212298B0B910212298B659102122986
:103B50008BAA910212298B43940212298B8695021B
:103B600012298B70980212298B54990212298B38D2
:103B70009A0212298B5D9A0212298B6E9A021229DF
:103B80008BE09A0212298B779B0212298BEB9B0206
:103B900012298BDB9C0212298B009D0212298B18A3
:103BA0009E0212298B369E0212298B529E021229E6
:103BB0008BC59E0212298BD49E0212298B5C9F0218
:103BC00012298B59A00212298B66A00212298B6F31
:103BD000A00212298B51A20212298B7DA302122965
:103BE0008B8DA30212298BC8A40212298B47A50230
:103BF00012298B78A60212298BB4A60212298B8E69
:103C0000A80212298B4BAC0212298B5FAC0212293D
:103C10008B69AC0212298B73AC0212298B7DAC022A
:103C200012298B87AC0212298BA0AC0212298BAA15
:103C3000AC0212298B21AD0212298B2CAD02122964
:103C40008B5BAD0212298B83AD0212298B8EAD02E4
:103C500012298BF3AD0212298BFDAD0212298B08BC
:103C6000AE0212298B2CAE0212298B50AE02122901
:103C70008BC2AE0212298B0BAF0212298B27AF0227
:103C800012298B98AF0212298BE4AF0212298B2DD7
:103C9000B00212298B6BB00212298BECB0021229F0
:103CA0008B93B10212298B58B30212298BBDB30238
:103CB00012298BEBB40212298B11B50212298B59F0
:103CC000B60212298B93B90212298B91BB021229D9
:103CD0008B5CBD0212298BF5BD0212298BF6BF0247
:103CE00012298BABC00212298BE4C00212298B541B
:103CF000C10212298B5EC10212298B87C3021229CD
:103D00008B8AC40212298BC7C50212298B1EC602D8
:103D100012298BC9C60212298B79C80212298BC6B7
:103D2000C90212298BE6C90212298B3BCA02122949
:103D30008B3CCB0212298B64CB0212298BC3CB02A2
:103D400012298BBBCC0212298B32CD0212298B4552
:103D5000CE0212298BB3CE0212298BB2CF021229C6
:103D60008B0CD20212298B35D20212298B9BD302E3
:103D700012298B1DD50212298B74D50212298B2290
:103D8000D60212298BC7D60212298B2AD7021229F2
:103D90008BE8D70212298B7AD80212298BD9D80244
:103DA00012298B1BD90212298B4CD90212298BA301
:103DB000DA0212298B00800312298B328003122928
:103DC0008B6B800312298B34820312298B78820338
:103DD00012298B4E830312298BAD830312298BC3C7
:103DE000840312298B0F850312298B9D87031229C7
:103DF0008B818A0312298BC88B0312298B608C0359
:103E000012298B6C8C0312298BB58C0312298BF72A
:103E10008D0312298BED8E0312298B178F03122924
:103E20008B6D8F0312298BC68F0312298B39900358
:103E300012298B6F920312298BF1930312298BDCC9
:103E4000940312298B26960312298B5E980312295C
:103E50008B5B9B0312298B6A9B0312298BFE9B03AE
:103E600012298BA99C0312298BEC9C0312298B35F8
:103E70009D0312298B859D0312298BE99D0312292D
:103E80008B5B9E0312298B779E0312298BA69E03C0
:103E900012298BE59E0312298BE09F0312298B8F39
:103EA000A00312298B0CA30312298B3EA403122911
:103EB0008B16A50312298B98A50312298BCDA90374
:103EC00012298BFCA90312298B57AA0312298B8A6A
:103ED000AA0312298B02AB0312298B35AB031229DB
:103EE0008B96AB0312298BE6AB0312298BB3AC0381
:103EF00012298B6CAD0312298B30AE0312298BAAC9
:103F0000B00312298B0CB20312298B5DB303122963
:103F10008B81B40312298B84B40312298BB3B403AD
:103F200012298BABB60312298B6AB70312298B991E
:103F3000B70312298BB7B80312298B7FB903122953
:103F40008B40BB0312298BB0BB0312298BE2BB034E
:103F500012298B02BC0312298B71BC0312298B6AB4
:103F6000BD0312298B8EBD0312298B01BE031229BA
:103F70008B2AC00312298B89C00312298BDDC00351
:103F800012298B0CC30312298BEFC30312298B77E1
:103F9000C40312298B5BC50312298BE5C5031229C3
:103FA0008BF9C50312298B0DC60312298B21C60379
:103FB00012298B35C60312298B62C60312298B92F4
:103FC000C60312298B4DC80312298B23C90312295A
:103FD0008BC7C90312298B1CCA0312298B7FCA0302
:103FE00012298BC8CA0312298BEFCA0312298BB777
:103FF000CB0312298B5DCC0312298BE3CD0312294D
:104000008B6ECE0312298BB5CE0312298B27CF03DB
:1040100012298B7CD00312298B25D10312298B59AD
:10402000D10312298B71D10312298B14D2031229C7
:104030008B90D40312298B38D60312298B56D603C2
:1040400012298B74D60312298B40D70312298B8E29
:10405000DA0312298B34810112298B76810112290E
:104060008BE3860112298B2F870112298B7587011B
:1040700012298BC6880112298B2B890112298B6F7B
:10408000890112298BD58A0112298B308E011229C0
:104090008B638F0112298BF29A0112298B829B016B
:1040A00012298B6C9E0112298BD19F0112298B340E
:1040B000A00112298B50A10112298BBAA201122949
:1040C0008B99A30112298B07A60112298B99A701AD
:1040D00012298B2AA80112298B49A90112298BD6F2
:1040E000A90112298BE0A90112298B08AA01122922
:1040F0008BABAA0112298B96AB0112298B5EAC0106
:1041000012298BEBAC0112298B01AD0112298B1EF8
:10411000AD0112298B47AD0112298B74AD01122913
:104120008BB8AF0112298B8BB00112298BCFB00154
:1041300012298B51B10112298BF2B10112298B2462
:10414000B20112298B6BB20112298B9EB201122986
:104150008BE2B20112298B31B30112298B36B301E4
:1041600012298B92B30112298BD6B30112298BC06D
:10417000B40112298B25B50112298B83B5011229AF
:104180008B02B60112298B7AB90112298B7DBA01F3
:1041900012298B13BC0112298B56BF0112298BF8EF
:1041A000BF0112298B41C20112298BFCC2011229C5
:1041B0008B3BC30112298BFFC40112298B1CC50143
:1041C00012298B25C50112298B2EC50112298B3985
:1041D000C50112298B58C50112298B7CC7011229F0
:1041E0008BD9C70112298BE3C70112298BEDC701B7
:1041F00012298B50C80112298BACC80112298BB926
:10420000C90112298B1ACA0112298B2BCB01122941
:104210008B74CB0112298B3ECC0112298B55CD0119
:1042200012298B19CE0112298B65CF0112298B69B6
:10423000D00112298B62D10112298B7AD101122966
:104240008BB1D10112298BBBD10112298BC5D101B0
:1042500012298BD0D10112298BEED10112298B3674
:10426000D20112298B94D20112298BBBD2011229BF
:104270008BCDD20112298B76D30112298BAFD301BA
:1042800012298BE0D40112298B3DD50112298B2EE6
:10429000D60112298B64D60112298BD4D60112299A
:1042A0008B50D70112298BD1D80112298BF8D90153
:1042B00012298BBADA0112298B88DB0112298B0DA6
:1042C000DC0112298BBCDC0112298BA4DD0112292F
:1042D0008B3DDE0112298B19DF0112298B81DF0151
:1042E00012298B40E00112298B9CE00112298B00DE
:1042F000E10112298BC6E10112298BE9E1011229A2
:104300008BA3E20112298BC5E20112298B26E3015E
:1043100012298B56E50112298B4FE60112298BFBDE
:10432000E60112298B18E90112298B61E901122992
:104330008BACE90112298B08EA0112298B66EA018C
:1043400012298B8AEA0112298BAEEA0112298BE32A
:10435000EA0112298B0BEB0112298B50EB01122978
:104360008BAEEB0112298B07EC0112298B01ED01B9
:1043700012298BADEE0112298BF2EE0112298B1B53
:10438000EF0112298BA4EF0112298B17F0011229DA
:104390008B25F00112298B49F00112298B9FF00126
:1043A00012298BBAF00112298B75F10112298BA108
:1043B000F10112298BE4F10112298B47F201122934
:1043C0008B57F40112298B83F40112298B3EF501DE
:1043D00012298B22F60112298BB6F60112298BD2F3
:1043E000C70512298B0AC80512298B2BC80512296B
:1043F0008B6DC80512298BD1C80512298BDBC80526
:1044000012298BEBC80512298B22C90512298BCBE7
:10441000CC0512298B93CE0512298B77D005122952
:104420008B19D10512298BA3D10512298B50800439
:1044300012298BF9800412298BD8810412298BE46C
:10444000820412298B04830412298B2684041229E6
:104450008BD6850412298B43860412298B1487047A
:1044600012298B1A880412298B92880412298BCD69
:10447000880412298B26890412298B618904122948
:104480008BAA890412298B3E8A0412298BD48A04B0
:1044900012298BA98B0412298B7C8C0412298B0A7C
:1044A0008D0412298B308D0412298B5D8D04122905
:1044B0008B8E8D0412298B5B8E0412298B6B8E04DC
:1044C00012298BBE8E0412298BCB8E0412298BD815
:1044D0008E0412298BE18E0412298B458F04122938
:1044E0008BA38F0412298BEE8F0412298B09900461
:1044F00012298B30900412298B4D900412298B596C
:10450000900412298BEA910412298B039204122938
:104510008B7F920412298B92920412298BA292040F
:1045200012298B46930412298BB2940412298BC54D
:10453000950412298B65960412298B6F9604122913
:104540008BEE960412298BFF960412298B3E97045A
:1045500012298B6C970412298B39980412298B909D
:10456000980412298BC9980412298B1F99041229C7
:104570008B3D990412298B8B990412298B569A042E
:1045800012298BA49A0412298BF19A0412298B7494
:104590009B0412298B9E9B0412298BD49B04122905
:1045A0008BE39B0412298B429C0412298BBA9C0436
:1045B00012298BFB9C0412298B4B9D0412298B76AC
:1045C0009D0412298B909D0412298BAA9D04122907
:1045D0008B7F9E0412298B899E0412298BC49E0412
:1045E00012298BD49E0412298BDD9E0412298B2E56
:1045F0009F0412298B429F0412298B64A004122964
:104600008B77A00412298B8CA00412298B1FA10484
:1046100012298B93A10412298B38A20412298B43EF
:10462000A20412298BA6A30412298BC2A304122967
:104630008B0EA40412298B7CA40412298BAEA40433
:1046400012298BC8A40412298B28A50412298BC710
:10465000A50412298B12A60412298B65A80412291D
:104660008BFDA80412298B74A90412298BD1AB04E9
:1046700012298BE9AB0412298BECAB0412298BF8BD
:10468000AB0412298B0CAC0412298B14AC04122934
:104690008B4BAC0412298B3FAD0412298BC9AD049E
:1046A00012298B4BAE0412298BCBAE0412298BA29C
:1046B000AF0412298BC4AF0412298B5DB0041229F8
:1046C0008BBAB00412298BBDB00412298B2CB10413
:1046D00012298B78B20412298B8BB30412298B1602
:1046E000B40412298B29B50412298BF0B5041229C0
:1046F0008B21B60412298B47B60412298B50B604BD
:1047000012298B7FB60412298B2FB70412298BDF55
:10471000B70412298B52B80412298BF5B804122958
:104720008B68B90412298BA7B90412298BF0B9043C
:1047300012298B80B10612298B3CB10612298B2AD3
:10474000B10612298B1AB10612298BE7FF01122933
:104750008BFCFF0212298B69B20612298B62B2060A
:1047600012298B0CAD0512298B59AC0512298B8DA2
:10477000AB0512298BE9A90512298BB2A9051229CB
:104780008B84A90512298B31A90512298B88A805CC
:1047900012298BF0A70512298BCAA70512298B7F36
:1047A000A70512298B53A70512298BC7A605122925
:1047B0008B66A60512298B21A60512298B3CA5051F
:1047C00012298B39B20612298B5AA40512298B2B78
:1047D000B20612298B22B20612298B19B2061229AF
:1047E0008BDBFF0512298BF6FF0212298BE6FF02F5
:1047F00012298BF9FF0212298B02A40512298B7250
:10480000A30512298B2DA30512298BBFAF061229F0
:104810008B11A30512298BBFA10512298B81A1053C
:1048200012298B5BA10512298BA89E0612298BDF0A
:10483000A00512298B59AF0612298B9BC705122997
:104840008B54C70512298BF3C60512298BC6C605E2
:1048500012298B9CC60512298B68C60512298B402C
:10486000C60512298BE0C50512298BCAC505122978
:104870008B8FC50512298B06C50512298B4DC105E5
:1048800012298B0BBF0512298BD0BC0512298B5224
:10489000BC0512298B03BC0512298BF3BA0512291A
:1048A0008B90BB0512298B51BB0512298B7A8E0682
:1048B00000000080FB8F0001001D1B870001001C11
:1048C0001B35000400A21E25000200A61E260002C1
:1048D00000A81E27000200AA1E28000100B41E29FD
:1048E000000100B51E84000400B61E86000100BA57
:1048F0001E2A000100BB1E2B000100BC1E2C000163
:1049000000C01E2D000800011B2E000100C11E2F3B
:10491000000100C21E30000100C31E31000100C4AE
:104920001E32000100C51E33000100C61E34000106
:1049300000C71E36000100C81E38000100C91E391C
:10494000000100BF1E83000200DD1E63000100198C
:104950001B64000100BD1E65000100BE1E6D00014C
:10496000001A1B71000800F91A66000100DC1E43E2
:10497000000100CD1E44000200CE1E45000100D003
:104980001E46000200D11E47000800111B4800010E
:1049900000D31E4B000100D41E04000100DF1EA145
:1049A000000100E21E37000100E11E88000100E066
:1049B0001E3C000100091B3D000100CA1E49000207
:1049C00000D51E670001001B1B4D000200D71E4EC4
:1049D000000100D91E4F000200DA1E3E0001001047
:1049E0001B510001000A1B52000100CB1E530001A5
:1049F00000CC1E540001000B1B0000000000000052
:104A00000136360101000102010001030100010429
:104A100001060605020000070100340801000F0925
:104A20000401010D0100FF0E08000017020000192B
:104A30000100FF1A0100011B0100FE1C0100081DFE
:104A40000200001F010001200100012102000023DB
:104A500001000F24020000260100012701000828A0
:104A60000200FF2A0100072B0102402C0100002D4B
:104A70000100012E0100012F0100FF30010B1D314B
:104A80000800003A0100083B01000F3C0100013D15
:104A90000100FF3E04000042040000460400004AFA
:104AA0000400004E04000052040000560400005AA6
:104AB0000400000103710301030103010301030169
:104AC0000322030203010310030003000300030099
:104AD0000300030003000342030003240306030052
:104AE0000300030403120325032303250323030404
:104AF0000304030003000300034403000300032333
:104B0000030003650321003503810300030503004F
:104B100003000300030003250323030101710101C6
:104B200001010111010101310101010101800110A7
:104B30000161013B001400630173017201620143D2
:104B4000010001130106013D0135000401120100BD
:104B50000100010001000104010401330133013CA3
:104B600001440132013600000100016501000135F8
:104B7000008101000105018201830100010302712E
:104B80000230016002110270020102020202028080
:104B900002100261023A0041006302730272026273
:104BA0000243020002130238000002000204021253
:104BB0000200020002000200020402040237003771
:104BC000003C0244020002390000020002650200BB
:104BD0000235028102000205028202830200020302
:104BE000047104020460041104700402040204014C
:104BF00004020410046104000414046304730472C6
:104C000004620443040004130406040004000404C2
:104C100004120400040004000400045104640000B1
:104C200004000400044404000400040004000465BB
:104C300004000435048104640005040004830400B6
:104C40000403007100300160001100700031022087
:104C50000350048000100061000000140063007322
:104C60000072006200430000001300060000000014
:104C70000004001200000000000000000004000416
:104C800000370037003C0244000000000000000034
:104C90000065000000350081000000050000008371
:104CA00000000036000100060000000F00000000B8
:104CB00000000000000000000003FFFF00000403EC
:104CC000FFFF0000FFFF0FF4010005C404032000F4
:104CD0000100000B000000000000000003010F00B5
:104CE00000000000000000000000000000000000C4
:104CF00000000000000000000000000000000000B4
:104D00000000002E3713008C361F0092361F80984B
:104D10003601002E370200143603001A3604002034
:104D20003605002636060032363000503631004A4D
:104D30003632005C36330062363500683634006E39
:104D4000363600743611008036140086361500445D
:104D500036FFFF00000A000000020000000400000F
:104D600000080000001000000020000000400000CB
:104D700000800000000001000000020000000400AC
:104D800000000800000010000000200000004000AB
:104D900000019A4006D04008CA400BE84010643D2C
:104DA0000AFA4002A04005BE4007A6400C82400D12
:104DB0008E40643C3BFF000007ECFDFDFDECDCDCBD
:104DC000CCBCACAC9C9C8C7C7C6C6C5C5C5C4C4CC3
:104DD0003C3C2C2C1C1C00160F00000B150B020079
:104DE00002220F3300000E01030507090B0D0F000F
:104DF000020406080A0C0D5A6967426565416C6C2D
:104E000069616E63653039150AF4D4C0A595827264
:104E1000636155504900011916181616182303002E
:104E2000303016181920231A1C1E3030301718196C
:104E300021301B1D1F3000393D3F373C3C362C4490
:104E40002D00034A49434E181A2505020C0E020B89
:104E5000040B0A0708000F02040201010101090204
:104E6000E803000000BE040AB84D00000000074E31
:104E70000E00FA067F008813140A080519040400BE
:104E8000101028090815030118030A10100600FF66
:104E90000A0C0400C082C083901A77E4F0A3F07C6F
:104EA0004C7D1C7AE47B19123338123B6C123DB2F4
:104EB000123B720263B574F512243B74F5122A8416
:104EC000E9FF8A08EBFE8C09E9705B74026A703EA8
:104ED0007908123584750A00780A1229ACE509F5BB
:104EE0000A780A1229ACEEF50A780A1229AC901A4F
:104EF00000122807901EBAE0F97C117D1B901EDD80
:104F0000126259123B9674071229D6024FDD7401C2
:104F10006A6003024FE279081235847B00EEFAF9E9
:104F2000123BD8024FDD74016F600874026F60039A
:104F3000024FE2EA600574036A7047790212358411
:104F4000901EBAE0F9901A00122C63123B84E9F823
:104F5000901A0FE0A2E34010E9700D901A7BE00474
:104F6000F064047003124FFC740365087071901AAA
:104F70007CE0F9740129F0E9C394054062124FFC0A
:104F8000805D74016A705B74016F790A702E12354E
:104F9000847401122C92E4F07402122C927403F0C7
:104FA00004122C92E4F0A3F0A3F0A3F07408122CE6
:104FB00092E4F0AA18AB191240AC803612358490F6
:104FC0001EB01228077A007B201259AE1229D69003
:104FD0001EBAE0F9901A00122C63123BBAE9F8E805
:104FE00060109080E31228077A017B001259AE12FC
:104FF00029D6740B1229D67F030226B9901A00E431
:10500000F0A374F8F0A374FFF0A37407F02274F611
:1050100012243BE9FFEAFE7AD1F91231B28A828B7F
:1050200083E5824583702A7A027B00123194EA4B31
:10503000700E7A107B00901A04E0F91231D68014B9
:105040008A828B8374D1F0EFA3F0EEF91231A08045
:1050500003EFA3F002525C74F712243B890890041A
:10506000D112755CFF901E9DE0F47003A3E0F47014
:10507000319007BDE0901E9DF0A3E4F080248E8265
:105080008F83A31260BD600F8E828F83A3A31260F3
:10509000BAFAA9081235FC8E828F83125F83E8FE6C
:1050A000E9FFEE4F70D8901E9DE0F47003A3E0F48A
:1050B000600A901E9DE0FAA9081235FC1241BA90D0
:1050C00019CE1257D21241B47F010226B974F012E0
:1050D000243B890B8C0C7509007508007410122C88
:1050E00092125F837412122C921267CDFD804712C8
:1050F0005197F50EA3E0F50FAE08EE2EFEE433FF58
:10510000EA2EF582EB126464650E7004A3E0650F6D
:105110007019AE09EE2EFEE433FFEC2EF582ED3F62
:10512000F583E50EF0A3E50FF00509050AE50AC3CE
:10513000950C40BB0508E508C3950B5005750A00A2
:1051400080EBA90980007F080226B974F412243B81
:10515000890B7D00740C122C92125F8380010DED7F
:10516000C3950B502E750A008002050AE50AC39C00
:1051700050ECED25E0FEE433FFEA2EF582EB3F1222
:1051800069C612519765087004A3E0650970DB7960
:1051900001800279008014AE0AEE2EFEE433FFE8AF
:1051A0002EF582E9125998221229D67F040226B9D7
:1051B00074F612243B1252467003A3E06D7017750B
:1051C000080D75091A78081229A8EEFA12373474F6
:1051D000021229D6801A75080275098078081229EA
:1051E000A88A08890978081229A81252341229D6E7
:1051F000806A74F612243B1252467003A3E06D706D
:105200001775081A75091A78081229A8EEFA1237C4
:105210003A74021229D6801A750803750980780835
:105220001229A88A08890978081229A8125234126A
:1052300029D68028EE240E125995FD7C8012646CCC
:10524000123758740422EAFEEBFF126483FCE4393F
:10525000FD9019CEE06C2274021229D67F0202263C
:10526000B974F612243B74FE122A84EAFEEBFF8521
:105270001882851983E41253051265BEFBECFA8887
:10528000828983A3A3E0F97509007508006005749D
:10529000FF697005750882803E9019CEE06A700340
:1052A000A3E06B701BAA18AB19124862E9FA8518C3
:1052B000828519831267D870037508838A0980175D
:1052C000901B1CE06004640170057508818008E093
:1052D000640270037508808518828519831267CD72
:1052E000FDA908EEFAEFFB123740E50960148518B6
:1052F000828519831267D8600985188285198312FF
:105300006DF5025257F0A3F01274352274F2122494
:105310003BEAFEEBFF75080075090012647FF50A91
:10532000E439F50B1241BAEA650A7003EB650B70BC
:1053300012124850E914F50879017A437B1A124891
:105340004A8003750980EE240E126461F50C780C16
:105350001229AC750C43750D1A780C1229A878081F
:105360001229AC780A1229A8E509F508780812294B
:10537000AC126248126461F97A057B801237467478
:105380000702769A74F612243BE9FF7E0080328A87
:10539000828B83E0F508A3E0F8E4C8F9E50828E487
:1053A00039F509EE25E0F8E433F9EC28F582ED391A
:1053B000F583E508F0A3E509F0EA2402FA50010BB1
:1053C0000EEEC39F40C902525C74E812243B74FC89
:1053D000122A848A168B177511007402122C92E41B
:1053E000F0A31265C612530535171259A6F50B85A1
:1053F0000A82F583127800FEE439FF850A82850B64
:1054000083A3A3E0FA850A82850B83A3A3A3E0F913
:10541000EAF508E439F509EEFAEFFB124256E964C1
:10542000016016EEFAEFFB124256E970389019CE81
:10543000E06E7003A3E06F602C12719C1229ACE443
:10544000F508F50978081229A878081229AC9019EE
:10545000CE12280B75088078081229AC1257A012BA
:1054600029D602577F850A82850B83A3A3A3A3E0D5
:10547000F510E50A2405F50A5002050BE510602831
:105480001277117402122C921257D27402122C92BB
:105490001267D860137402122C92125796A9101238
:1054A000362C8A0A8B0B8003751000850A82850BC7
:1054B000831276AB6024127711851882851983EAEE
:1054C000F0A3EB1267DEE849601085188285198326
:1054D000125796A90F12362C8003750F009004D135
:1054E0008052850A82850B83A3A3A3A3A3A3A3A3AE
:1054F000E4F0A3F0AA0AAB0B851482851583A3A35D
:10550000E0F81260BAF91231A0851282851383E0A7
:10551000C0E0A811744328F582E4341AF583D0E082
:10552000F00511A2005007AA12AB1312323C8514E9
:1055300082851583E0F514A3E0F515E51445157093
:10554000030256FC851482851583A31260BD60DEBC
:10555000851482851583A3A3A3A3A3A3A3A3E0A279
:10556000E050CB851482851583A3A3A3A31267D82B
:10557000851482851583A3A3601E1260BEFA79018B
:10558000851482851583A3A3A3A312578912261914
:105590008A128B13D200800F125789A3A3A3E0F5C0
:1055A00012A3E0F513C200E5124513700302552360
:1055B000851282851383A3E065087004A3E0650962
:1055C000600F74FF6508700474FF6509600302557D
:1055D00023851282851383A3A3A3A3A3A3A31228C5
:1055E0000B851282851383A3A3A3A3A3A3E0FC745A
:1055F00004122C92126259A91012360E740212294A
:10560000D6E9703C851282851383A3A3A3A3A3A329
:10561000A3A3A3A312280B851282851383A3A3A39C
:10562000A3A3A3A3A3A3E0FC7402122C92126259B9
:10563000A90F12360E74021229D6E97003025523FF
:10564000E50F2510C333240AFA7B001231948A0A2D
:105650008B0BEA4B70030255098A828B8374D2123A
:1056600069D08A828B83A3A3E8F0A3E912767AA398
:10567000E51012780AE50FF0E510602CEA240AFA2A
:10568000E4350BFB850A82850B831257CD74021219
:105690002C921257C01229A4AC10EC2CFCE433FD60
:1056A000126ECE1229D6800D8A828B83A3A3A3A368
:1056B000A3E4F0A3F0E50F70030254E2A810E82879
:1056C000F8E433F9E50A28F8E50B39F9E8240AFA91
:1056D000E439FB850A82850B83A3A3A31257CD85EA
:1056E00018828519831257C01229A4AC0FEC2CFC28
:1056F000E433FD126ECE1229D60254F4E511602572
:1057000012719C1229AC75084375091A7808122980
:10571000A8E511F50878081229AC9019CE12280BCB
:105720007508008029EEFAEFFB124256E9702A1242
:10573000719C1229AC75084375091A78081229A8BA
:1057400075080078081229AC9019CE12280B780839
:105750001229AC1257A01229D67402122C92126789
:10576000D860087402122C92126DF5851882851982
:10577000831267D86009851882851983126DF574C4
:10578000041229D67F100226B912578D22E0F8A301
:10579000E0F583888222E0FCA3E0FDAA0AAB0B229D
:1057A000E5162402FCE43517FDE516240FF582E426
:1057B0003517F583E0F97A067B80123746740722A5
:1057C000E0F50CA3E0F50D750E00780C22A3A3A361
:1057D000A3A3EAF0A3EBF02274F112243B74F412B9
:1057E0002A848A088B09ECFEEDFF740B122C92744C
:1057F00003F0122A461233381263317403122A4618
:10580000123332E9600A12599D6010E06401600BA6
:1058100085188285198374840259498E828F83A3E7
:10582000A3A3A3A3A3A3A3E06013F4601012599D44
:105830007016EE24141264616003F4700B851882F4
:105840008519837482025949127520E0642170021F
:10585000A3E06003025920851882851983748CF0B7
:1058600012599D600302590A7401122A4EEE240B4C
:10587000FAE43FFB123EDEE9600302590A12357278
:105880008A0A8B0BEA4B700302594A8E0C8F0D75F6
:105890000E00780C1229A47C157D00126ECE122900
:1058A000D6850882850983A3A3E50A2415FCE4357F
:1058B0000BFD7409122904127151C0E0E50A241E7F
:1058C000125982D0E0125DDAC0E0E50A241F1259B5
:1058D00082D0E0F0E50A24201259827405F0EE240B
:1058E0000BFE50010FFAEFFB12478A7D007C007916
:1058F00000EEFAEFFB1236FE9080E31228077A00E2
:105900007B101259AE1229D6807312598A1229AC13
:105910001259B9123EC074011229D6E9702C8014B4
:1059200012598A1229AC1259B9123EC674011229B1
:10593000D6E9700D851882851983E4F0123542800E
:10594000098518828519837488F0127151F50A78D7
:105950000A1229AC7401122A3E880A890B780A12AD
:1059600029A8E508240CF582E435091259A64480DB
:10597000F50B780A1229A81263131229D6740C02A7
:105980006CE4F582E4350BF58322EE24141259956C
:10599000F50A780A22F582E43FF583E022EE24132B
:1059A000125995640322F583E0F50AA3E022901AC8
:1059B00004E0F91232F0740422EE240BFCE43FFD03
:1059C0008E828F83A3A3A3A3A3A3A3A3A312718CEB
:1059D0008E828F83A3A3A3A3A3A3A3A3E0F922C0D2
:1059E00082C08374F3122A84851882851983E4F0B7
:1059F00004122C921257D27403122C92AA82AB83F7
:105A0000123A70AA18AB19123AAC740D1229D602C8
:105A100063B574F612243B12645AF8A3E0125A5587
:105A2000F8901A15E058F508A3E059F509E508457E
:105A300009601F78081229A89019CE12280BEE24AD
:105A40000E126461FD7C00126468123752740412F5
:105A500029D602525C8882F583125A5D22E0FAA3AD
:105A6000E0F9EA2274EA12243B74DB122A848A14D5
:105A70008B157512007513001274313515F58312EC
:105A800060BEF50EAC18AD197A007B00799C123B14
:105A9000EA7A047900123AD6EAF50C85188285195B
:105AA00083E02AF0F8E50EC3984003025C88E0C367
:105AB000950EF509C394044003750903E50975F0D3
:105AC0001AA4FAABF01232368A128B13EA4B700327
:105AD000025C8B750D00AE12AF13850E08025B6879
:105AE0007C087D0079FFEE240AFAE43FFB12317C4A
:105AF000850A82850B83A3A3A3A3E0702D850A8268
:105B0000850B831267D8700C127365F0EE2418129F
:105B100073688010125D10F0901CBEE014C0E0129B
:105B20005CF3D0E0125D43E48034901CBEE004C01E
:105B3000E0125CF3D0E0125D36C39403EE40030242
:105B40005BF11274267402125D3664017003025B0D
:105B5000FEEE2415125D13F0EE2416125D13F0EE26
:105B6000241AFE50010F050DE50DC39509400302EF
:105B70005C29E508C3950C4003025C07AA087B007A
:105B8000123B248A0A8B0B0508901CAB125D1C8506
:105B90000A82850B83125F83125CEBF583E8F0A326
:105BA000E9125D53850A82850B83A3A3A3A3A3A354
:105BB000A3A3A3A3E0C0E0125CE1D0E0F074011263
:105BC0002C92E4F0850A82850B83125F83740212A3
:105BD0002C92E812756A7401122A46123A9AE96404
:105BE000016003025AE07404122C92125D01025A01
:105BF000F0125D11125D3664036003025B51EE2406
:105C000015127368025B57E50CC3950E40057508C5
:105C100000801DE50EC3950CF5088014125D10F090
:105C2000EE241AFE50010F050DE50DC39509505BDA
:105C3000740E122A4EAA087B007987123BEA0508E7
:105C40007418122C92125D1C7410122C92125D01A9
:105C5000EE2412F8E43FF9740E122C921262598865
:105C6000828983EAF0A3EB125D437403125D5374DF
:105C70001D122C92E0C0E0125CE1D0E0127647E801
:105C80004970991273658097750900750A00780A42
:105C90001229AC78121229A878091229ACE50EF560
:105CA0000978091229AC7405122C92E0FD7C00E5FC
:105CB000141261D63515FBE5141273563515F583AC
:105CC000E0F912378E74051229D6E51245136007E4
:105CD000AA12AB1312323C74251229D67F0E02266B
:105CE000B9EE2419F582E43FF58322EE2412F58201
:105CF000E43F22125CF722EE2418F582E43FF5839C
:105D000022AC82AD83EE240AFAE43FFB1233382240
:105D1000EE2414F582E43FF5837401221269DD8ECE
:105D2000828F83E8F0A3E9F07CBF7D1CEE1261D680
:105D30003FFB12333822F0850A82850B83A3A3A38D
:105D4000A3E0221273A97402F0EE2416F582E43F58
:105D5000F58322F0EE2417F582E43FF5837402F018
:105D6000125CF774FFF02274F612243B74F9122AC5
:105D70008412742D35091278BE8518828519831214
:105D80002C7B8E828F83A3A3A3A3E0C0E0740412B4
:105D90002C92D0E012765CF87405122C927401F00B
:105DA0007406122C927401F09019D8F09019E10445
:105DB00012744BFAA3E0FB9019D91257D2E890194C
:105DC000E2125DDA9019D7F0AA18AB19123B8AE9F2
:105DD0006003123B907407025259F0E508240F1239
:105DE00071592274F212243B74FF122A8475080040
:105DF0007E007F001240DC8A0A8B0B125F638008F2
:105E00000508125F6F125F83E84970F4901B1CE075
:105E1000600764016003025EDB125F638006125F4D
:105E20006F125F83E84960338882898312625990D8
:105E30001CABE06A7003A3E06B600A125F6F126232
:105E400059EA4B70D988828983125F83901CABE03A
:105E5000687003A3E0697003025EDB7A167B0012B0
:105E600075DF6077901CAB125F838A828B83E812A8
:105E7000756A901CA0126ABFF012423EE98E828FB2
:105E800083A3A3A3A3A3F0901EBBE08E828F83A362
:105E9000A3A3A3A3A3F07CBF7D1CEE240B125D087B
:105EA000AA18AB19794112394A851882851983E0FD
:105EB00060089019CE125F83800478FE79FF8E828D
:105EC0008F83A3A3A3A3A3A3A3E812756AEE125F13
:105ED000773F125F878E0A8F0B05089019E2E0F872
:105EE000E508C398500479008027E508C398F9C3F2
:105EF0009406400279057800800DE50A125F773537
:105F00000B1259A6F50B089019E2E0FAE8C39A4083
:105F1000E975090078091229AC780A1229A8E9F56F
:105F20000978091229AC9019E2E0F50978091229DB
:105F3000ACAD087C007AD97B199019D7E0F91237FB
:105F40008874051229D6901B1CE060046401700B54
:105F5000EE4F6007EEFAEFFB12323C123B907401F9
:105F600002769A1240DC8A0C8B0DA80CA90D22E84F
:105F7000125F7739F583222414F582E42285188292
:105F80008519831269DD22F583E50AF0A3E50BF09C
:105F90002274F012243B74FF122A848A0A8B0B7E2F
:105FA000008E0E8E0F1274311259851260BEFFAC36
:105FB00018AD197A007B00799D123BEA851882851D
:105FC0001983E0F8EFC3984003026065E0C39FFEC9
:105FD000C3940B40027E0AEE75F007A4FAABF012F0
:105FE00061CE8A0E8B0FEA4B6079750C00801A85A2
:105FF0000882850983A3A3A3A3A37403F0E508245F
:1060000007F50850020509050CE50CC39E5056AC77
:1060100008AD09E50C2FFAE43400FB798B123BEA5A
:10602000850882850983A3A3A3A3A3E014600814B1
:10603000601314601F80B8850882850983A3A3A319
:10604000A3A3E480B7850882850983A3A3A3A3A3A0
:10605000740180A8850882850983A3A3A3A3A374E0
:106060000280997E0075080078081229AC780E121B
:1060700029A8EEF50878081229ACEFF5087808127F
:1060800029AC7405122C92E0FD7C00E50A1261D661
:10609000350BFBE50A127356125985E0F912379455
:1060A00074051229D6E50E450F6007AA0EAB0F1234
:1060B000323C74011229D602514612578FA312574F
:1060C0008DE02274EE12243B74FE122A848A0C8B1B
:1060D0000D751000751100127431350DF5831260C5
:1060E000BEF50AAC18AD197A007B0079A3123ECC3C
:1060F000125F7DC3E50A98E499507485188285196A
:1061000083A80AE0C398FEA3E09400FFC3EE9404C2
:10611000EF940040067E037F008004EE4F6050EE57
:10612000FAEFFBEA75F015A4FAA8F075F015EBA4E8
:10613000281261CD8A108B11EA4B6033750B007504
:106140000E00801FAC08AD09A80AE50E28FAE43459
:1061500000FB79A2123ECCE5082415F50850020593
:1061600009050EC3E50E9EE49F40D9EEF980057542
:106170000B8B790075080078081229AC7810122969
:10618000A8E9F50878081229ACE50AF5087808129C
:1061900029AC7405122C92E0FDAC0BE50C1261D613
:1061A000350DFBE50C127356350DF583E0F912370A
:1061B0009A74051229D6E51045116007AA10AB1193
:1061C00012323C74021229D67F0A0226B9FB12321F
:1061D000368A088B09222402FAE42274F612243B40
:1061E00074FF122A84EAFEEBFF1262341262598AAB
:1061F00082F583A3A3A3A3A3A3A3A3E0F9123BAEB9
:10620000E9851882851983F075080078081229AC91
:106210007401122A3E8808890978081229A875088D
:106220003575098078081229A812623C1229D674A3
:1062300001025259EA1274363FF583227901126243
:1062400048FAE43F12632A22EE2402FCE43FFDEE0A
:10625000240F2285188285198312718C2274F412FE
:10626000243B74FA122A8412742D126EC012755CCB
:10627000FFEEFAEFFB123A76E9600F126331EEFAA5
:10628000EFFB123332E96401700A7401122C92E4BC
:10629000F0A380097401122C92EEF0A3EF1276871E
:1062A000F8A2E650087403122C927401F0E8A2E7F9
:1062B00050087404122C927401F07405122C92E4AC
:1062C000F004122A46123BDEE9851882851983F014
:1062D0009080E7122C631241D87A007B001241E4CF
:1062E0007A007B001241DE750A00780A1229AC742C
:1062F00001122A3E880A890B780A1229A8750A34E5
:10630000750B80780A1229A81263131229D6740615
:106310000251A87901E5082402FCE43509FDE508ED
:10632000240FFAE4350912632A22FB1236F27405AF
:10633000221241B48A0A8B0BAC0AAD0B2274F612FE
:10634000243B74FF122A8412645AF8A3E08882F571
:1063500083E0F509A3E0F508A909123B9CE985183B
:1063600082851983F0901B1CE0700B740165087026
:1063700005A909123854EE240B12646170277508C0
:106380000078081229AC7401122A3E88088909781D
:10639000081229A875083675098078081229A812EC
:1063A000623C1229D602622FC082C083901B1CE07F
:1063B000700312385AD083D08202298874F41224D0
:1063C0003B74EF122A84EAFEEBFF12647FF508E4C7
:1063D00039F5099019CEE06A7003A3E0697052A8FC
:1063E00018A919880A890B780A1229A8750A117543
:1063F0000B00780A1229A87C007D007A817B0012AC
:1064000032C074041229D6E97027750A00780A127E
:1064100029AC7401122A3E880A890B780A1229A82D
:10642000AC08AD0912646812374C74031229D68087
:1064300024750A11750B80780A1229A87808122988
:10644000A8EE240E126461FD7C8412646812375831
:1064500074041229D674110251A8EAFEEBFFEA2453
:1064600013F582E41259982212646C22EE2402FA87
:10647000E43FFBEE240FF582E43FF583E0F92212BE
:10648000648322EA2413F582E43FF583126D568873
:1064900082F583E0FAA3E0F8E4C8F9EA282274F16F
:1064A00012243B74EB122A84EAFEEBFF12743112C1
:1064B00065BEFAE4CAFBEC2AF5089019CEE06C70D0
:1064C00003A3E06B600302656388828983A3A3E072
:1064D0009410500F88828983A3A3E08518828519C0
:1064E0008380088518828519837410F0E0C0E074F9
:1064F00004122C92D0E012754BA982AA83890C8ACF
:106500000D750E00780C1229A47407122C92E0FC71
:106510007D007408122C92AA82AB83126ECE1229CF
:10652000D67404122A3E880A890B780A1229A875A3
:106530000A11750B00780A1229A87C007D007A8167
:106540007B001232BA74041229D67404122C92E021
:10655000901A0D6005E0D2E48003E0C2E41265C643
:10656000E480088518828519837484F0E0C0E074A3
:1065700001122C92D0E0F07402122C92E508F07413
:1065800003122C92E508F01265B73F1271A512298B
:10659000AC7402122A3E8808890978081229A87565
:1065A000081475098078081229A8790312623E122E
:1065B00029D67415026CE4EE240EF582E4223F1213
:1065C000756FFCA3E022F08518828519832274F68A
:1065D00012243B74E0122A84EAFEEBFF901CADE02B
:1065E00064086008E0640460030267B2AC18AD1987
:1065F0001236DA901B1CE0640270271241B4740258
:10660000122C92AC82AD83123332E960151267B757
:10661000851882851983E0687003A3E0697003021E
:1066200067B21243887402122C92AC82AD8312625C
:1066300053124286E9640170030267B27418122A89
:10664000461241C67402122C92AC82AD83741812A9
:106650002A46123332E9602D1241C08A088B09A8FC
:1066600008A909851882851983E0687003A3E06989
:106670006013125F7D901CA1E812756A7AA17B1CE1
:10668000794B123950901B1CE06004640170671252
:1066900067B7EE2411126461687003A3E069605665
:1066A0007402122C92AA82AB83123B008B09A909B7
:1066B000EA4960268A828B83A3A3A3A3E0640160D6
:1066C0000D8A828B83A3A3A3A3E06402700C7402DF
:1066D000122C92AA82AB83123B0C901D3B1267D8FE
:1066E0006014901B10E06401700C126253901D3C0A
:1066F0001257901226197900126253123D2E901CE7
:10670000AB1267CDFD126253124340740B122C92F0
:10671000E41267DE740C122C92E812756A740B1284
:106720002A46123A9AE9603F7C087D007900741885
